{
  "_format": "hh-sol-artifact-1",
  "contractName": "ClassificationProposal",
  "sourceName": "contracts/proposal.sol",
  "abi": [
    {
      "inputs": [
        {
          "internalType": "uint256",
          "name": "",
          "type": "uint256"
        }
      ],
      "name": "classifications",
      "outputs": [
        {
          "internalType": "address",
          "name": "owner",
          "type": "address"
        },
        {
          "internalType": "string",
          "name": "title",
          "type": "string"
        },
        {
          "internalType": "string",
          "name": "description",
          "type": "string"
        },
        {
          "internalType": "uint256",
          "name": "target",
          "type": "uint256"
        },
        {
          "internalType": "uint256",
          "name": "deadline",
          "type": "uint256"
        },
        {
          "internalType": "uint256",
          "name": "amountCollected",
          "type": "uint256"
        },
        {
          "internalType": "string",
          "name": "image",
          "type": "string"
        }
      ],
      "stateMutability": "view",
      "type": "function"
    },
    {
      "inputs": [
        {
          "internalType": "address",
          "name": "_owner",
          "type": "address"
        },
        {
          "internalType": "string",
          "name": "_title",
          "type": "string"
        },
        {
          "internalType": "string",
          "name": "_description",
          "type": "string"
        },
        {
          "internalType": "uint256",
          "name": "_target",
          "type": "uint256"
        },
        {
          "internalType": "uint256",
          "name": "_deadline",
          "type": "uint256"
        },
        {
          "internalType": "string",
          "name": "_image",
          "type": "string"
        }
      ],
      "name": "createProposal",
      "outputs": [
        {
          "internalType": "uint256",
          "name": "",
          "type": "uint256"
        }
      ],
      "stateMutability": "nonpayable",
      "type": "function"
    },
    {
      "inputs": [],
      "name": "getProposals",
      "outputs": [
        {
          "components": [
            {
              "internalType": "address",
              "name": "owner",
              "type": "address"
            },
            {
              "internalType": "string",
              "name": "title",
              "type": "string"
            },
            {
              "internalType": "string",
              "name": "description",
              "type": "string"
            },
            {
              "internalType": "uint256",
              "name": "target",
              "type": "uint256"
            },
            {
              "internalType": "uint256",
              "name": "deadline",
              "type": "uint256"
            },
            {
              "internalType": "uint256",
              "name": "amountCollected",
              "type": "uint256"
            },
            {
              "internalType": "string",
              "name": "image",
              "type": "string"
            },
            {
              "internalType": "address[]",
              "name": "voters",
              "type": "address[]"
            },
            {
              "internalType": "uint256[]",
              "name": "votes",
              "type": "uint256[]"
            }
          ],
          "internalType": "struct ClassificationProposal.Classification[]",
          "name": "",
          "type": "tuple[]"
        }
      ],
      "stateMutability": "view",
      "type": "function"
    },
    {
      "inputs": [
        {
          "internalType": "uint256",
          "name": "_id",
          "type": "uint256"
        }
      ],
      "name": "getVoters",
      "outputs": [
        {
          "internalType": "address[]",
          "name": "",
          "type": "address[]"
        },
        {
          "internalType": "uint256[]",
          "name": "",
          "type": "uint256[]"
        }
      ],
      "stateMutability": "view",
      "type": "function"
    },
    {
      "inputs": [],
      "name": "numberOfClassifications",
      "outputs": [
        {
          "internalType": "uint256",
          "name": "",
          "type": "uint256"
        }
      ],
      "stateMutability": "view",
      "type": "function"
    },
    {
      "inputs": [
        {
          "internalType": "uint256",
          "name": "_id",
          "type": "uint256"
        }
      ],
      "name": "voteForProposal",
      "outputs": [],
      "stateMutability": "payable",
      "type": "function"
    }
  ],
  "bytecode": "0x6080604052600060015534801561001557600080fd5b50610f20806100256000396000f3fe6080604052600436106100555760003560e01c8063045c6ce01461005a57806362564c481461006f5780636ceae4d11461009a57806385f25a00146100c857806386b646f2146100de578063a88949301461010c575b600080fd5b61006d610068366004610a0e565b61013f565b005b34801561007b57600080fd5b50610084610201565b6040516100919190610ae8565b60405180910390f35b3480156100a657600080fd5b506100ba6100b5366004610c98565b6105ae565b604051908152602001610091565b3480156100d457600080fd5b506100ba60015481565b3480156100ea57600080fd5b506100fe6100f9366004610a0e565b6106c9565b604051610091929190610d51565b34801561011857600080fd5b5061012c610127366004610a0e565b610798565b6040516100919796959493929190610dd5565b600081815260208181526040808320600781018054600180820183559186528486200180546001600160a01b0319163317905560088201805491820181558552928420349301839055805491519293909290916001600160a01b03169084908381818185875af1925050503d80600081146101d6576040519150601f19603f3d011682016040523d82523d6000602084013e6101db565b606091505b5050905080156101fb578282600501546101f59190610e55565b60058301555b50505050565b6060600060015467ffffffffffffffff81111561022057610220610bf5565b6040519080825280602002602001820160405280156102a957816020015b61029660405180610120016040528060006001600160a01b0316815260200160608152602001606081526020016000815260200160008152602001600081526020016060815260200160608152602001606081525090565b81526020019060019003908161023e5790505b50905060005b6001548110156105a857600081815260208181526040918290208251610120810190935280546001600160a01b03168352600181018054919392849290840191906102f990610e6d565b80601f016020809104026020016040519081016040528092919081815260200182805461032590610e6d565b80156103725780601f1061034757610100808354040283529160200191610372565b820191906000526020600020905b81548152906001019060200180831161035557829003601f168201915b5050505050815260200160028201805461038b90610e6d565b80601f01602080910402602001604051908101604052809291908181526020018280546103b790610e6d565b80156104045780601f106103d957610100808354040283529160200191610404565b820191906000526020600020905b8154815290600101906020018083116103e757829003601f168201915b5050505050815260200160038201548152602001600482015481526020016005820154815260200160068201805461043b90610e6d565b80601f016020809104026020016040519081016040528092919081815260200182805461046790610e6d565b80156104b45780601f10610489576101008083540402835291602001916104b4565b820191906000526020600020905b81548152906001019060200180831161049757829003601f168201915b505050505081526020016007820180548060200260200160405190810160405280929190818152602001828054801561051657602002820191906000526020600020905b81546001600160a01b031681526001909101906020018083116104f8575b505050505081526020016008820180548060200260200160405190810160405280929190818152602001828054801561056e57602002820191906000526020600020905b81548152602001906001019080831161055a575b50505050508152505083838151811061058957610589610ea2565b60200260200101819052505080806105a090610eb8565b9150506102af565b50919050565b60015460009081526020819052604081206004810154421161062a5760405162461bcd60e51b815260206004820152602b60248201527f54686520646561646c696e652073686f756c642062652061206461746520696e60448201526a207468652066757475726560a81b606482015260840160405180910390fd5b80546001600160a01b0319166001600160a01b038916178155865161065890600183019060208a0190610975565b50855161066e9060028301906020890190610975565b5060038101859055600481018490556000600582015582516106999060068301906020860190610975565b50600180549060006106aa83610eb8565b9190505550600180546106bd9190610ed3565b98975050505050505050565b6000818152602081815260409182902060078101805484518185028101850190955280855260609485949293600801929091849183018282801561073657602002820191906000526020600020905b81546001600160a01b03168152600190910190602001808311610718575b505050505091508080548060200260200160405190810160405280929190818152602001828054801561078857602002820191906000526020600020905b815481526020019060010190808311610774575b5050505050905091509150915091565b600060208190529081526040902080546001820180546001600160a01b0390921692916107c490610e6d565b80601f01602080910402602001604051908101604052809291908181526020018280546107f090610e6d565b801561083d5780601f106108125761010080835404028352916020019161083d565b820191906000526020600020905b81548152906001019060200180831161082057829003601f168201915b50505050509080600201805461085290610e6d565b80601f016020809104026020016040519081016040528092919081815260200182805461087e90610e6d565b80156108cb5780601f106108a0576101008083540402835291602001916108cb565b820191906000526020600020905b8154815290600101906020018083116108ae57829003601f168201915b5050505050908060030154908060040154908060050154908060060180546108f290610e6d565b80601f016020809104026020016040519081016040528092919081815260200182805461091e90610e6d565b801561096b5780601f106109405761010080835404028352916020019161096b565b820191906000526020600020905b81548152906001019060200180831161094e57829003601f168201915b5050505050905087565b82805461098190610e6d565b90600052602060002090601f0160209004810192826109a357600085556109e9565b82601f106109bc57805160ff19168380011785556109e9565b828001600101855582156109e9579182015b828111156109e95782518255916020019190600101906109ce565b506109f59291506109f9565b5090565b5b808211156109f557600081556001016109fa565b600060208284031215610a2057600080fd5b5035919050565b6000815180845260005b81811015610a4d57602081850181015186830182015201610a31565b81811115610a5f576000602083870101525b50601f01601f19169290920160200192915050565b600081518084526020808501945080840160005b83811015610aad5781516001600160a01b031687529582019590820190600101610a88565b509495945050505050565b600081518084526020808501945080840160005b83811015610aad57815187529582019590820190600101610acc565b60006020808301818452808551808352604092508286019150828160051b87010184880160005b83811015610be757888303603f19018552815180516001600160a01b0316845261012088820151818a870152610b4782870182610a27565b9150508782015185820389870152610b5f8282610a27565b606084810151908801526080808501519088015260a0808501519088015260c080850151888303828a01529193509150610b998382610a27565b9250505060e08083015186830382880152610bb48382610a74565b925050506101008083015192508582038187015250610bd38183610ab8565b968901969450505090860190600101610b0f565b509098975050505050505050565b634e487b7160e01b600052604160045260246000fd5b600082601f830112610c1c57600080fd5b813567ffffffffffffffff80821115610c3757610c37610bf5565b604051601f8301601f19908116603f01168101908282118183101715610c5f57610c5f610bf5565b81604052838152866020858801011115610c7857600080fd5b836020870160208301376000602085830101528094505050505092915050565b60008060008060008060c08789031215610cb157600080fd5b86356001600160a01b0381168114610cc857600080fd5b9550602087013567ffffffffffffffff80821115610ce557600080fd5b610cf18a838b01610c0b565b96506040890135915080821115610d0757600080fd5b610d138a838b01610c0b565b9550606089013594506080890135935060a0890135915080821115610d3757600080fd5b50610d4489828a01610c0b565b9150509295509295509295565b604080825283519082018190526000906020906060840190828701845b82811015610d935781516001600160a01b031684529284019290840190600101610d6e565b5050508381038285015284518082528583019183019060005b81811015610dc857835183529284019291840191600101610dac565b5090979650505050505050565b6001600160a01b038816815260e060208201819052600090610df990830189610a27565b8281036040840152610e0b8189610a27565b90508660608401528560808401528460a084015282810360c0840152610e318185610a27565b9a9950505050505050505050565b634e487b7160e01b600052601160045260246000fd5b60008219821115610e6857610e68610e3f565b500190565b600181811c90821680610e8157607f821691505b602082108114156105a857634e487b7160e01b600052602260045260246000fd5b634e487b7160e01b600052603260045260246000fd5b6000600019821415610ecc57610ecc610e3f565b5060010190565b600082821015610ee557610ee5610e3f565b50039056fea2646970667358221220c3540924668b7454f9265c09af82295888327e2f8610ac05fd1df6f66022142564736f6c634300080b0033",
  "linkReferences": {},
  "deployedLinkReferences": {}
}