{
  "_format": "hh-sol-artifact-1",
  "contractName": "PlanetProposal",
  "sourceName": "contracts/planetProposal.sol",
  "abi": [
    {
      "inputs": [
        {
          "internalType": "string",
          "name": "_question",
          "type": "string"
        }
      ],
      "name": "createProposal",
      "outputs": [],
      "stateMutability": "nonpayable",
      "type": "function"
    },
    {
      "inputs": [
        {
          "internalType": "uint256",
          "name": "_proposalIndex",
          "type": "uint256"
        }
      ],
      "name": "getProposalResult",
      "outputs": [
        {
          "internalType": "string",
          "name": "",
          "type": "string"
        },
        {
          "internalType": "uint256",
          "name": "",
          "type": "uint256"
        },
        {
          "internalType": "uint256",
          "name": "",
          "type": "uint256"
        }
      ],
      "stateMutability": "view",
      "type": "function"
    },
    {
      "inputs": [
        {
          "internalType": "uint256",
          "name": "",
          "type": "uint256"
        },
        {
          "internalType": "address",
          "name": "",
          "type": "address"
        }
      ],
      "name": "hasVoted",
      "outputs": [
        {
          "internalType": "bool",
          "name": "",
          "type": "bool"
        }
      ],
      "stateMutability": "view",
      "type": "function"
    },
    {
      "inputs": [
        {
          "internalType": "uint256",
          "name": "",
          "type": "uint256"
        }
      ],
      "name": "proposals",
      "outputs": [
        {
          "internalType": "string",
          "name": "question",
          "type": "string"
        },
        {
          "internalType": "uint256",
          "name": "yesVotes",
          "type": "uint256"
        },
        {
          "internalType": "uint256",
          "name": "noVotes",
          "type": "uint256"
        }
      ],
      "stateMutability": "view",
      "type": "function"
    },
    {
      "inputs": [
        {
          "internalType": "uint256",
          "name": "_proposalIndex",
          "type": "uint256"
        },
        {
          "internalType": "bool",
          "name": "_voteYes",
          "type": "bool"
        }
      ],
      "name": "vote",
      "outputs": [],
      "stateMutability": "nonpayable",
      "type": "function"
    }
  ],
  "bytecode": "0x608060405234801561001057600080fd5b50610752806100206000396000f3fe608060405234801561001057600080fd5b50600436106100575760003560e01c8063013cf08b1461005c578063438596321461008757806349c2a1a6146100c5578063c9d27afe146100da578063f91f88f7146100ed575b600080fd5b61006f61006a3660046104fb565b610100565b60405161007e93929190610514565b60405180910390f35b6100b5610095366004610578565b600160209081526000928352604080842090915290825290205460ff1681565b604051901515815260200161007e565b6100d86100d33660046105ca565b6101c2565b005b6100d86100e836600461067b565b61023f565b61006f6100fb3660046104fb565b610356565b6000818154811061011057600080fd5b9060005260206000209060030201600091509050806000018054610133906106a5565b80601f016020809104026020016040519081016040528092919081815260200182805461015f906106a5565b80156101ac5780601f10610181576101008083540402835291602001916101ac565b820191906000526020600020905b81548152906001019060200180831161018f57829003601f168201915b5050505050908060010154908060020154905083565b6040805160608101825282815260006020808301829052928201819052805460018101825590805281518051929360039092027f290decd9548b62a8d60345a988386fc84ba6bc95484008f6362f93160ef3e56301926102259284920190610462565b506020820151816001015560408201518160020155505050565b600082815260016020908152604080832033845290915290205460ff16156102ad5760405162461bcd60e51b815260206004820152601760248201527f596f75206861766520616c726561647920766f7465642e000000000000000000604482015260640160405180910390fd5b80156102f3576001600083815481106102c8576102c86106e0565b906000526020600020906003020160010160008282546102e891906106f6565b9091555061032e9050565b600160008381548110610308576103086106e0565b9060005260206000209060030201600201600082825461032891906106f6565b90915550505b506000908152600160208181526040808420338552909152909120805460ff19169091179055565b60606000806000848154811061036e5761036e6106e0565b906000526020600020906003020160000160008581548110610392576103926106e0565b906000526020600020906003020160010154600086815481106103b7576103b76106e0565b9060005260206000209060030201600201548280546103d5906106a5565b80601f0160208091040260200160405190810160405280929190818152602001828054610401906106a5565b801561044e5780601f106104235761010080835404028352916020019161044e565b820191906000526020600020905b81548152906001019060200180831161043157829003601f168201915b505050505092509250925092509193909250565b82805461046e906106a5565b90600052602060002090601f01602090048101928261049057600085556104d6565b82601f106104a957805160ff19168380011785556104d6565b828001600101855582156104d6579182015b828111156104d65782518255916020019190600101906104bb565b506104e29291506104e6565b5090565b5b808211156104e257600081556001016104e7565b60006020828403121561050d57600080fd5b5035919050565b606081526000845180606084015260005b818110156105425760208188018101516080868401015201610525565b81811115610554576000608083860101525b5060208301949094525060408101919091526080601f909201601f19160101919050565b6000806040838503121561058b57600080fd5b8235915060208301356001600160a01b03811681146105a957600080fd5b809150509250929050565b634e487b7160e01b600052604160045260246000fd5b6000602082840312156105dc57600080fd5b813567ffffffffffffffff808211156105f457600080fd5b818401915084601f83011261060857600080fd5b81358181111561061a5761061a6105b4565b604051601f8201601f19908116603f01168101908382118183101715610642576106426105b4565b8160405282815287602084870101111561065b57600080fd5b826020860160208301376000928101602001929092525095945050505050565b6000806040838503121561068e57600080fd5b82359150602083013580151581146105a957600080fd5b600181811c908216806106b957607f821691505b602082108114156106da57634e487b7160e01b600052602260045260246000fd5b50919050565b634e487b7160e01b600052603260045260246000fd5b6000821982111561071757634e487b7160e01b600052601160045260246000fd5b50019056fea2646970667358221220063bfb73a84fe082d46807b09b67fd218028f23058ce185d00b55e5bac5174bd64736f6c634300080b0033",
  "linkReferences": {},
  "deployedLinkReferences": {}
}